{
  "_format": "hh-sol-artifact-1",
  "contractName": "FlexiPay",
  "sourceName": "contracts/FlexiPay.sol",
  "abi": [
    {
      "inputs": [],
      "stateMutability": "nonpayable",
      "type": "constructor"
    },
    {
      "inputs": [
        {
          "internalType": "string",
          "name": "_eventId",
          "type": "string"
        },
        {
          "internalType": "uint256",
          "name": "_lockingFee",
          "type": "uint256"
        }
      ],
      "name": "addEvent",
      "outputs": [],
      "stateMutability": "nonpayable",
      "type": "function"
    },
    {
      "inputs": [
        {
          "internalType": "string",
          "name": "_eventId",
          "type": "string"
        }
      ],
      "name": "getEventLockedFee",
      "outputs": [
        {
          "internalType": "uint256",
          "name": "",
          "type": "uint256"
        }
      ],
      "stateMutability": "view",
      "type": "function"
    },
    {
      "inputs": [
        {
          "internalType": "string",
          "name": "_eventId",
          "type": "string"
        }
      ],
      "name": "isRsvpFeeWithDrawn",
      "outputs": [
        {
          "internalType": "bool",
          "name": "",
          "type": "bool"
        }
      ],
      "stateMutability": "view",
      "type": "function"
    },
    {
      "inputs": [
        {
          "internalType": "string",
          "name": "_eventId",
          "type": "string"
        },
        {
          "internalType": "uint256",
          "name": "tokens",
          "type": "uint256"
        }
      ],
      "name": "registerForEvent",
      "outputs": [],
      "stateMutability": "nonpayable",
      "type": "function"
    },
    {
      "inputs": [
        {
          "internalType": "uint256",
          "name": "",
          "type": "uint256"
        }
      ],
      "name": "registeredEvents",
      "outputs": [
        {
          "internalType": "string",
          "name": "",
          "type": "string"
        }
      ],
      "stateMutability": "view",
      "type": "function"
    },
    {
      "inputs": [
        {
          "internalType": "string",
          "name": "_eventId",
          "type": "string"
        }
      ],
      "name": "withDrawRsvpFee",
      "outputs": [],
      "stateMutability": "nonpayable",
      "type": "function"
    }
  ],
  "bytecode": "0x6080604052735d8b4c2554aeb7e86f387b4d6c00ac33499ed01f600460006101000a81548173ffffffffffffffffffffffffffffffffffffffff021916908373ffffffffffffffffffffffffffffffffffffffff16021790555034801561006557600080fd5b50600460009054906101000a900473ffffffffffffffffffffffffffffffffffffffff166000806101000a81548173ffffffffffffffffffffffffffffffffffffffff021916908373ffffffffffffffffffffffffffffffffffffffff160217905550611174806100d76000396000f3fe608060405234801561001057600080fd5b50600436106100625760003560e01c80630e0a218c1461006757806366c383d6146100975780637c361508146100c7578063b321eac1146100f7578063bbbbe37c14610113578063f0e1691a1461012f575b600080fd5b610081600480360381019061007c919061099f565b61014b565b60405161008e9190610a03565b60405180910390f35b6100b160048036038101906100ac9190610a54565b6101c8565b6040516100be9190610b09565b60405180910390f35b6100e160048036038101906100dc919061099f565b610274565b6040516100ee9190610b3a565b60405180910390f35b610111600480360381019061010c919061099f565b61029c565b005b61012d60048036038101906101289190610b55565b61055e565b005b61014960048036038101906101449190610b55565b6106b2565b005b6000803360405160200161015f9190610c2b565b60405160208183030381529060405283604051602001610180929190610cb3565b60405160208183030381529060405290506005816040516101a19190610ce6565b908152602001604051809103902060000160009054906101000a900460ff16915050919050565b600381815481106101d857600080fd5b9060005260206000200160009150905080546101f390610d2c565b80601f016020809104026020016040519081016040528092919081815260200182805461021f90610d2c565b801561026c5780601f106102415761010080835404028352916020019161026c565b820191906000526020600020905b81548152906001019060200180831161024f57829003601f168201915b505050505081565b60006002826040516102869190610d9a565b9081526020016040518091039020549050919050565b6000336040516020016102af9190610c2b565b604051602081830303815290604052826040516020016102d0929190610cb3565b60405160208183030381529060405290506001826040516102f19190610d9a565b9081526020016040518091039020546002836040516103109190610d9a565b9081526020016040518091039020541015610360576040517f08c379a000000000000000000000000000000000000000000000000000000000815260040161035790610dfd565b60405180910390fd5b600015156005826040516103749190610ce6565b908152602001604051809103902060000160009054906101000a900460ff161515146103d5576040517f08c379a00000000000000000000000000000000000000000000000000000000081526004016103cc90610e69565b60405180910390fd5b60016005826040516103e79190610ce6565b908152602001604051809103902060000160006101000a81548160ff02191690831515021790555060006005826040516104219190610ce6565b908152602001604051809103902060000160016101000a81548160ff0219169083151502179055506001826040516104599190610d9a565b9081526020016040518091039020546002836040516104789190610d9a565b908152602001604051809103902060008282546104959190610eb8565b9250508190555060008054906101000a900473ffffffffffffffffffffffffffffffffffffffff1673ffffffffffffffffffffffffffffffffffffffff1663a9059cbb33670de0b6b3a76400006001866040516104f29190610d9a565b90815260200160405180910390205461050b9190610eec565b6040518363ffffffff1660e01b8152600401610528929190610f55565b600060405180830381600087803b15801561054257600080fd5b505af1158015610556573d6000803e3d6000fd5b505050505050565b60018260405161056e9190610d9a565b9081526020016040518091039020548110156105bf576040517f08c379a00000000000000000000000000000000000000000000000000000000081526004016105b690610ff0565b60405180910390fd5b6000336040516020016105d29190610c2b565b604051602081830303815290604052836040516020016105f3929190610cb3565b604051602081830303815290604052905060006005826040516106169190610ce6565b908152602001604051809103902060000160006101000a81548160ff02191690831515021790555060016005826040516106509190610ce6565b908152602001604051809103902060000160016101000a81548160ff021916908315150217905550816002846040516106899190610d9a565b908152602001604051809103902060008282546106a69190611010565b92505081905550505050565b600082905060008151116106fb576040517f08c379a00000000000000000000000000000000000000000000000000000000081526004016106f2906110b2565b60405180910390fd5b6000821161073e576040517f08c379a00000000000000000000000000000000000000000000000000000000081526004016107359061111e565b60405180910390fd5b8160018460405161074f9190610d9a565b90815260200160405180910390208190555060038390806001815401808255809150506001900390600052602060002001600090919091909150908051906020019061079c9291906107a2565b50505050565b8280546107ae90610d2c565b90600052602060002090601f0160209004810192826107d05760008555610817565b82601f106107e957805160ff1916838001178555610817565b82800160010185558215610817579182015b828111156108165782518255916020019190600101906107fb565b5b5090506108249190610828565b5090565b5b80821115610841576000816000905550600101610829565b5090565b6000604051905090565b600080fd5b600080fd5b600080fd5b600080fd5b6000601f19601f8301169050919050565b7f4e487b7100000000000000000000000000000000000000000000000000000000600052604160045260246000fd5b6108ac82610863565b810181811067ffffffffffffffff821117156108cb576108ca610874565b5b80604052505050565b60006108de610845565b90506108ea82826108a3565b919050565b600067ffffffffffffffff82111561090a57610909610874565b5b61091382610863565b9050602081019050919050565b82818337600083830152505050565b600061094261093d846108ef565b6108d4565b90508281526020810184848401111561095e5761095d61085e565b5b610969848285610920565b509392505050565b600082601f83011261098657610985610859565b5b813561099684826020860161092f565b91505092915050565b6000602082840312156109b5576109b461084f565b5b600082013567ffffffffffffffff8111156109d3576109d2610854565b5b6109df84828501610971565b91505092915050565b60008115159050919050565b6109fd816109e8565b82525050565b6000602082019050610a1860008301846109f4565b92915050565b6000819050919050565b610a3181610a1e565b8114610a3c57600080fd5b50565b600081359050610a4e81610a28565b92915050565b600060208284031215610a6a57610a6961084f565b5b6000610a7884828501610a3f565b91505092915050565b600081519050919050565b600082825260208201905092915050565b60005b83811015610abb578082015181840152602081019050610aa0565b83811115610aca576000848401525b50505050565b6000610adb82610a81565b610ae58185610a8c565b9350610af5818560208601610a9d565b610afe81610863565b840191505092915050565b60006020820190508181036000830152610b238184610ad0565b905092915050565b610b3481610a1e565b82525050565b6000602082019050610b4f6000830184610b2b565b92915050565b60008060408385031215610b6c57610b6b61084f565b5b600083013567ffffffffffffffff811115610b8a57610b89610854565b5b610b9685828601610971565b9250506020610ba785828601610a3f565b9150509250929050565b600073ffffffffffffffffffffffffffffffffffffffff82169050919050565b6000610bdc82610bb1565b9050919050565b60008160601b9050919050565b6000610bfb82610be3565b9050919050565b6000610c0d82610bf0565b9050919050565b610c25610c2082610bd1565b610c02565b82525050565b6000610c378284610c14565b60148201915081905092915050565b600081519050919050565b600081905092915050565b6000610c6782610c46565b610c718185610c51565b9350610c81818560208601610a9d565b80840191505092915050565b7f2000000000000000000000000000000000000000000000000000000000000000815250565b6000610cbf8285610c5c565b9150610cca82610c8d565b600182019150610cda8284610c5c565b91508190509392505050565b6000610cf28284610c5c565b915081905092915050565b7f4e487b7100000000000000000000000000000000000000000000000000000000600052602260045260246000fd5b60006002820490506001821680610d4457607f821691505b60208210811415610d5857610d57610cfd565b5b50919050565b600081905092915050565b6000610d7482610a81565b610d7e8185610d5e565b9350610d8e818560208601610a9d565b80840191505092915050565b6000610da68284610d69565b915081905092915050565b7f4e6f206665652072656d61696e7320746f20636c61696d000000000000000000600082015250565b6000610de7601783610a8c565b9150610df282610db1565b602082019050919050565b60006020820190508181036000830152610e1681610dda565b9050919050565b7f596f752068616420616c72656164792077697468647261776e20666565000000600082015250565b6000610e53601d83610a8c565b9150610e5e82610e1d565b602082019050919050565b60006020820190508181036000830152610e8281610e46565b9050919050565b7f4e487b7100000000000000000000000000000000000000000000000000000000600052601160045260246000fd5b6000610ec382610a1e565b9150610ece83610a1e565b925082821015610ee157610ee0610e89565b5b828203905092915050565b6000610ef782610a1e565b9150610f0283610a1e565b9250817fffffffffffffffffffffffffffffffffffffffffffffffffffffffffffffffff0483118215151615610f3b57610f3a610e89565b5b828202905092915050565b610f4f81610bd1565b82525050565b6000604082019050610f6a6000830185610f46565b610f776020830184610b2b565b9392505050565b7f596f752073686f756c642070617920616d6f756e7420657175616c20746f206c60008201527f6f636b696e672066656500000000000000000000000000000000000000000000602082015250565b6000610fda602a83610a8c565b9150610fe582610f7e565b604082019050919050565b6000602082019050818103600083015261100981610fcd565b9050919050565b600061101b82610a1e565b915061102683610a1e565b9250827fffffffffffffffffffffffffffffffffffffffffffffffffffffffffffffffff0382111561105b5761105a610e89565b5b828201905092915050565b7f4576656e742069642063616e2774206265206e756c6c00000000000000000000600082015250565b600061109c601683610a8c565b91506110a782611066565b602082019050919050565b600060208201905081810360008301526110cb8161108f565b9050919050565b7f4576656e74206c6f636b696e67206665652063616e2774206265207a65726f00600082015250565b6000611108601f83610a8c565b9150611113826110d2565b602082019050919050565b60006020820190508181036000830152611137816110fb565b905091905056fea2646970667358221220237f146da53a1f2287c4fac970f22da6d16c8e817180a2db15092a06ad2d369764736f6c63430008090033",
  "linkReferences": {},
  "deployedLinkReferences": {}
}