{
  "_format": "hh-sol-artifact-1",
  "contractName": "FlexiPay",
  "sourceName": "contracts/FlexiPay.sol",
  "abi": [
    {
      "inputs": [],
      "stateMutability": "nonpayable",
      "type": "constructor"
    },
    {
      "inputs": [
        {
          "internalType": "string",
          "name": "_eventId",
          "type": "string"
        },
        {
          "internalType": "uint256",
          "name": "_lockingFee",
          "type": "uint256"
        }
      ],
      "name": "addEvent",
      "outputs": [],
      "stateMutability": "nonpayable",
      "type": "function"
    },
    {
      "inputs": [
        {
          "internalType": "string",
          "name": "_eventId",
          "type": "string"
        }
      ],
      "name": "getEventLockedFee",
      "outputs": [
        {
          "internalType": "uint256",
          "name": "",
          "type": "uint256"
        }
      ],
      "stateMutability": "view",
      "type": "function"
    },
    {
      "inputs": [
        {
          "internalType": "string",
          "name": "_eventId",
          "type": "string"
        },
        {
          "internalType": "uint256",
          "name": "tokens",
          "type": "uint256"
        }
      ],
      "name": "registerForEvent",
      "outputs": [],
      "stateMutability": "nonpayable",
      "type": "function"
    },
    {
      "inputs": [
        {
          "internalType": "uint256",
          "name": "",
          "type": "uint256"
        }
      ],
      "name": "registeredEvents",
      "outputs": [
        {
          "internalType": "string",
          "name": "",
          "type": "string"
        }
      ],
      "stateMutability": "view",
      "type": "function"
    },
    {
      "inputs": [
        {
          "internalType": "string",
          "name": "_eventId",
          "type": "string"
        }
      ],
      "name": "withDrawRsvpFee",
      "outputs": [],
      "stateMutability": "nonpayable",
      "type": "function"
    }
  ],
  "bytecode": "0x6080604052735d8b4c2554aeb7e86f387b4d6c00ac33499ed01f600460006101000a81548173ffffffffffffffffffffffffffffffffffffffff021916908373ffffffffffffffffffffffffffffffffffffffff16021790555034801561006557600080fd5b50600460009054906101000a900473ffffffffffffffffffffffffffffffffffffffff166000806101000a81548173ffffffffffffffffffffffffffffffffffffffff021916908373ffffffffffffffffffffffffffffffffffffffff160217905550610d2e806100d76000396000f3fe608060405234801561001057600080fd5b50600436106100575760003560e01c806366c383d61461005c5780637c3615081461008c578063b321eac1146100bc578063bbbbe37c146100d8578063f0e1691a146100f4575b600080fd5b61007660048036038101906100719190610605565b610110565b60405161008391906106cb565b60405180910390f35b6100a660048036038101906100a19190610822565b6101bc565b6040516100b3919061087a565b60405180910390f35b6100d660048036038101906100d19190610822565b6101e4565b005b6100f260048036038101906100ed9190610895565b61038e565b005b61010e60048036038101906101099190610895565b610428565b005b6003818154811061012057600080fd5b90600052602060002001600091509050805461013b90610920565b80601f016020809104026020016040519081016040528092919081815260200182805461016790610920565b80156101b45780601f10610189576101008083540402835291602001916101b4565b820191906000526020600020905b81548152906001019060200180831161019757829003601f168201915b505050505081565b60006002826040516101ce919061098e565b9081526020016040518091039020549050919050565b6001816040516101f4919061098e565b908152602001604051809103902054600282604051610213919061098e565b9081526020016040518091039020541015610263576040517f08c379a000000000000000000000000000000000000000000000000000000000815260040161025a906109f1565b60405180910390fd5b600181604051610273919061098e565b908152602001604051809103902054600282604051610292919061098e565b9081526020016040518091039020546102ab9190610a40565b6002826040516102bb919061098e565b90815260200160405180910390208190555060008054906101000a900473ffffffffffffffffffffffffffffffffffffffff1673ffffffffffffffffffffffffffffffffffffffff1663a9059cbb33670de0b6b3a7640000600185604051610323919061098e565b90815260200160405180910390205461033c9190610a74565b6040518363ffffffff1660e01b8152600401610359929190610b0f565b600060405180830381600087803b15801561037357600080fd5b505af1158015610387573d6000803e3d6000fd5b5050505050565b60018260405161039e919061098e565b9081526020016040518091039020548110156103ef576040517f08c379a00000000000000000000000000000000000000000000000000000000081526004016103e690610baa565b60405180910390fd5b80600283604051610400919061098e565b9081526020016040518091039020600082825461041d9190610bca565b925050819055505050565b60008290506000815111610471576040517f08c379a000000000000000000000000000000000000000000000000000000000815260040161046890610c6c565b60405180910390fd5b600082116104b4576040517f08c379a00000000000000000000000000000000000000000000000000000000081526004016104ab90610cd8565b60405180910390fd5b816001846040516104c5919061098e565b908152602001604051809103902081905550600383908060018154018082558091505060019003906000526020600020016000909190919091509080519060200190610512929190610518565b50505050565b82805461052490610920565b90600052602060002090601f016020900481019282610546576000855561058d565b82601f1061055f57805160ff191683800117855561058d565b8280016001018555821561058d579182015b8281111561058c578251825591602001919060010190610571565b5b50905061059a919061059e565b5090565b5b808211156105b757600081600090555060010161059f565b5090565b6000604051905090565b600080fd5b600080fd5b6000819050919050565b6105e2816105cf565b81146105ed57600080fd5b50565b6000813590506105ff816105d9565b92915050565b60006020828403121561061b5761061a6105c5565b5b6000610629848285016105f0565b91505092915050565b600081519050919050565b600082825260208201905092915050565b60005b8381101561066c578082015181840152602081019050610651565b8381111561067b576000848401525b50505050565b6000601f19601f8301169050919050565b600061069d82610632565b6106a7818561063d565b93506106b781856020860161064e565b6106c081610681565b840191505092915050565b600060208201905081810360008301526106e58184610692565b905092915050565b600080fd5b600080fd5b7f4e487b7100000000000000000000000000000000000000000000000000000000600052604160045260246000fd5b61072f82610681565b810181811067ffffffffffffffff8211171561074e5761074d6106f7565b5b80604052505050565b60006107616105bb565b905061076d8282610726565b919050565b600067ffffffffffffffff82111561078d5761078c6106f7565b5b61079682610681565b9050602081019050919050565b82818337600083830152505050565b60006107c56107c084610772565b610757565b9050828152602081018484840111156107e1576107e06106f2565b5b6107ec8482856107a3565b509392505050565b600082601f830112610809576108086106ed565b5b81356108198482602086016107b2565b91505092915050565b600060208284031215610838576108376105c5565b5b600082013567ffffffffffffffff811115610856576108556105ca565b5b610862848285016107f4565b91505092915050565b610874816105cf565b82525050565b600060208201905061088f600083018461086b565b92915050565b600080604083850312156108ac576108ab6105c5565b5b600083013567ffffffffffffffff8111156108ca576108c96105ca565b5b6108d6858286016107f4565b92505060206108e7858286016105f0565b9150509250929050565b7f4e487b7100000000000000000000000000000000000000000000000000000000600052602260045260246000fd5b6000600282049050600182168061093857607f821691505b6020821081141561094c5761094b6108f1565b5b50919050565b600081905092915050565b600061096882610632565b6109728185610952565b935061098281856020860161064e565b80840191505092915050565b600061099a828461095d565b915081905092915050565b7f4e6f206665652072656d61696e7320746f20636c61696d000000000000000000600082015250565b60006109db60178361063d565b91506109e6826109a5565b602082019050919050565b60006020820190508181036000830152610a0a816109ce565b9050919050565b7f4e487b7100000000000000000000000000000000000000000000000000000000600052601160045260246000fd5b6000610a4b826105cf565b9150610a56836105cf565b925082821015610a6957610a68610a11565b5b828203905092915050565b6000610a7f826105cf565b9150610a8a836105cf565b9250817fffffffffffffffffffffffffffffffffffffffffffffffffffffffffffffffff0483118215151615610ac357610ac2610a11565b5b828202905092915050565b600073ffffffffffffffffffffffffffffffffffffffff82169050919050565b6000610af982610ace565b9050919050565b610b0981610aee565b82525050565b6000604082019050610b246000830185610b00565b610b31602083018461086b565b9392505050565b7f596f752073686f756c642070617920616d6f756e7420657175616c20746f206c60008201527f6f636b696e672066656500000000000000000000000000000000000000000000602082015250565b6000610b94602a8361063d565b9150610b9f82610b38565b604082019050919050565b60006020820190508181036000830152610bc381610b87565b9050919050565b6000610bd5826105cf565b9150610be0836105cf565b9250827fffffffffffffffffffffffffffffffffffffffffffffffffffffffffffffffff03821115610c1557610c14610a11565b5b828201905092915050565b7f4576656e742069642063616e2774206265206e756c6c00000000000000000000600082015250565b6000610c5660168361063d565b9150610c6182610c20565b602082019050919050565b60006020820190508181036000830152610c8581610c49565b9050919050565b7f4576656e74206c6f636b696e67206665652063616e2774206265207a65726f00600082015250565b6000610cc2601f8361063d565b9150610ccd82610c8c565b602082019050919050565b60006020820190508181036000830152610cf181610cb5565b905091905056fea26469706673582212209e5c3b58484f54183345981b75653ab8cbec47a3b15fdd6602d93dfcfde7a77764736f6c63430008090033",
  "linkReferences": {},
  "deployedLinkReferences": {}
}