{
    "_format": "hh-sol-artifact-1",
    "contractName": "FlexiPay",
    "sourceName": "contracts/FlexiPay.sol",
    "abi": [
        {
            "inputs": [
                {
                    "internalType": "string",
                    "name": "_eventId",
                    "type": "string"
                },
                {
                    "internalType": "uint256",
                    "name": "_lockingFee",
                    "type": "uint256"
                }
            ],
            "name": "addEvent",
            "outputs": [],
            "stateMutability": "nonpayable",
            "type": "function"
        },
        {
            "inputs": [
                {
                    "internalType": "string",
                    "name": "_eventId",
                    "type": "string"
                }
            ],
            "name": "getEventLockedFee",
            "outputs": [
                {
                    "internalType": "uint256",
                    "name": "",
                    "type": "uint256"
                }
            ],
            "stateMutability": "view",
            "type": "function"
        },
        {
            "inputs": [
                {
                    "internalType": "string",
                    "name": "_eventId",
                    "type": "string"
                }
            ],
            "name": "registerForEvent",
            "outputs": [],
            "stateMutability": "payable",
            "type": "function"
        },
        {
            "inputs": [
                {
                    "internalType": "uint256",
                    "name": "",
                    "type": "uint256"
                }
            ],
            "name": "registeredEvents",
            "outputs": [
                {
                    "internalType": "string",
                    "name": "",
                    "type": "string"
                }
            ],
            "stateMutability": "view",
            "type": "function"
        }
    ],
    "bytecode": "0x608060405234801561001057600080fd5b50610a12806100206000396000f3fe60806040526004361061003f5760003560e01c806366c383d6146100445780637c36150814610081578063dd6af32b146100be578063f0e1691a146100da575b600080fd5b34801561005057600080fd5b5061006b6004803603810190610066919061044d565b610103565b6040516100789190610513565b60405180910390f35b34801561008d57600080fd5b506100a860048036038101906100a3919061066a565b6101af565b6040516100b591906106c2565b60405180910390f35b6100d860048036038101906100d3919061066a565b6101d7565b005b3480156100e657600080fd5b5061010160048036038101906100fc91906106dd565b610270565b005b6002818154811061011357600080fd5b90600052602060002001600091509050805461012e90610768565b80601f016020809104026020016040519081016040528092919081815260200182805461015a90610768565b80156101a75780601f1061017c576101008083540402835291602001916101a7565b820191906000526020600020905b81548152906001019060200180831161018a57829003601f168201915b505050505081565b60006001826040516101c191906107d6565b9081526020016040518091039020549050919050565b6000816040516101e791906107d6565b908152602001604051809103902054341015610238576040517f08c379a000000000000000000000000000000000000000000000000000000000815260040161022f9061085f565b60405180910390fd5b3460008260405161024991906107d6565b9081526020016040518091039020600082825461026691906108ae565b9250508190555050565b600082905060008151116102b9576040517f08c379a00000000000000000000000000000000000000000000000000000000081526004016102b090610950565b60405180910390fd5b600082116102fc576040517f08c379a00000000000000000000000000000000000000000000000000000000081526004016102f3906109bc565b60405180910390fd5b8160008460405161030d91906107d6565b90815260200160405180910390208190555060028390806001815401808255809150506001900390600052602060002001600090919091909150908051906020019061035a929190610360565b50505050565b82805461036c90610768565b90600052602060002090601f01602090048101928261038e57600085556103d5565b82601f106103a757805160ff19168380011785556103d5565b828001600101855582156103d5579182015b828111156103d45782518255916020019190600101906103b9565b5b5090506103e291906103e6565b5090565b5b808211156103ff5760008160009055506001016103e7565b5090565b6000604051905090565b600080fd5b600080fd5b6000819050919050565b61042a81610417565b811461043557600080fd5b50565b60008135905061044781610421565b92915050565b6000602082840312156104635761046261040d565b5b600061047184828501610438565b91505092915050565b600081519050919050565b600082825260208201905092915050565b60005b838110156104b4578082015181840152602081019050610499565b838111156104c3576000848401525b50505050565b6000601f19601f8301169050919050565b60006104e58261047a565b6104ef8185610485565b93506104ff818560208601610496565b610508816104c9565b840191505092915050565b6000602082019050818103600083015261052d81846104da565b905092915050565b600080fd5b600080fd5b7f4e487b7100000000000000000000000000000000000000000000000000000000600052604160045260246000fd5b610577826104c9565b810181811067ffffffffffffffff821117156105965761059561053f565b5b80604052505050565b60006105a9610403565b90506105b5828261056e565b919050565b600067ffffffffffffffff8211156105d5576105d461053f565b5b6105de826104c9565b9050602081019050919050565b82818337600083830152505050565b600061060d610608846105ba565b61059f565b9050828152602081018484840111156106295761062861053a565b5b6106348482856105eb565b509392505050565b600082601f83011261065157610650610535565b5b81356106618482602086016105fa565b91505092915050565b6000602082840312156106805761067f61040d565b5b600082013567ffffffffffffffff81111561069e5761069d610412565b5b6106aa8482850161063c565b91505092915050565b6106bc81610417565b82525050565b60006020820190506106d760008301846106b3565b92915050565b600080604083850312156106f4576106f361040d565b5b600083013567ffffffffffffffff81111561071257610711610412565b5b61071e8582860161063c565b925050602061072f85828601610438565b9150509250929050565b7f4e487b7100000000000000000000000000000000000000000000000000000000600052602260045260246000fd5b6000600282049050600182168061078057607f821691505b6020821081141561079457610793610739565b5b50919050565b600081905092915050565b60006107b08261047a565b6107ba818561079a565b93506107ca818560208601610496565b80840191505092915050565b60006107e282846107a5565b915081905092915050565b7f596f752073686f756c642070617920616d6f756e7420657175616c20746f206c60008201527f6f636b696e672066656500000000000000000000000000000000000000000000602082015250565b6000610849602a83610485565b9150610854826107ed565b604082019050919050565b600060208201905081810360008301526108788161083c565b9050919050565b7f4e487b7100000000000000000000000000000000000000000000000000000000600052601160045260246000fd5b60006108b982610417565b91506108c483610417565b9250827fffffffffffffffffffffffffffffffffffffffffffffffffffffffffffffffff038211156108f9576108f861087f565b5b828201905092915050565b7f4576656e742069642063616e2774206265206e756c6c00000000000000000000600082015250565b600061093a601683610485565b915061094582610904565b602082019050919050565b600060208201905081810360008301526109698161092d565b9050919050565b7f4576656e74206c6f636b696e67206665652063616e2774206265207a65726f00600082015250565b60006109a6601f83610485565b91506109b182610970565b602082019050919050565b600060208201905081810360008301526109d581610999565b905091905056fea2646970667358221220ae948769d5e53ef27472b261841e725bc0ba0e6061839c17cd657645e49eceda64736f6c63430008090033",
    "linkReferences": {},
    "deployedLinkReferences": {}
}