{
  "_format": "hh-sol-artifact-1",
  "contractName": "FlexiPay",
  "sourceName": "contracts/FlexiPay.sol",
  "abi": [
    {
      "inputs": [
        {
          "internalType": "string",
          "name": "_eventId",
          "type": "string"
        },
        {
          "internalType": "uint256",
          "name": "_lockingFee",
          "type": "uint256"
        }
      ],
      "name": "addEvent",
      "outputs": [],
      "stateMutability": "nonpayable",
      "type": "function"
    },
    {
      "inputs": [
        {
          "internalType": "string",
          "name": "_eventId",
          "type": "string"
        }
      ],
      "name": "getEventLockedFee",
      "outputs": [
        {
          "internalType": "uint256",
          "name": "",
          "type": "uint256"
        }
      ],
      "stateMutability": "view",
      "type": "function"
    },
    {
      "inputs": [
        {
          "internalType": "string",
          "name": "_eventId",
          "type": "string"
        },
        {
          "internalType": "uint256",
          "name": "tokens",
          "type": "uint256"
        }
      ],
      "name": "registerForEvent",
      "outputs": [],
      "stateMutability": "nonpayable",
      "type": "function"
    },
    {
      "inputs": [
        {
          "internalType": "uint256",
          "name": "",
          "type": "uint256"
        }
      ],
      "name": "registeredEvents",
      "outputs": [
        {
          "internalType": "string",
          "name": "",
          "type": "string"
        }
      ],
      "stateMutability": "view",
      "type": "function"
    }
  ],
  "bytecode": "0x608060405234801561001057600080fd5b506109f9806100206000396000f3fe608060405234801561001057600080fd5b506004361061004c5760003560e01c806366c383d6146100515780637c36150814610081578063bbbbe37c146100b1578063f0e1691a146100cd575b600080fd5b61006b60048036038101906100669190610434565b6100e9565b60405161007891906104fa565b60405180910390f35b61009b60048036038101906100969190610651565b610195565b6040516100a891906106a9565b60405180910390f35b6100cb60048036038101906100c691906106c4565b6101bd565b005b6100e760048036038101906100e291906106c4565b610257565b005b600281815481106100f957600080fd5b9060005260206000200160009150905080546101149061074f565b80601f01602080910402602001604051908101604052809291908181526020018280546101409061074f565b801561018d5780601f106101625761010080835404028352916020019161018d565b820191906000526020600020905b81548152906001019060200180831161017057829003601f168201915b505050505081565b60006001826040516101a791906107bd565b9081526020016040518091039020549050919050565b6000826040516101cd91906107bd565b90815260200160405180910390205481101561021e576040517f08c379a000000000000000000000000000000000000000000000000000000000815260040161021590610846565b60405180910390fd5b8060008360405161022f91906107bd565b9081526020016040518091039020600082825461024c9190610895565b925050819055505050565b600082905060008151116102a0576040517f08c379a000000000000000000000000000000000000000000000000000000000815260040161029790610937565b60405180910390fd5b600082116102e3576040517f08c379a00000000000000000000000000000000000000000000000000000000081526004016102da906109a3565b60405180910390fd5b816000846040516102f491906107bd565b908152602001604051809103902081905550600283908060018154018082558091505060019003906000526020600020016000909190919091509080519060200190610341929190610347565b50505050565b8280546103539061074f565b90600052602060002090601f01602090048101928261037557600085556103bc565b82601f1061038e57805160ff19168380011785556103bc565b828001600101855582156103bc579182015b828111156103bb5782518255916020019190600101906103a0565b5b5090506103c991906103cd565b5090565b5b808211156103e65760008160009055506001016103ce565b5090565b6000604051905090565b600080fd5b600080fd5b6000819050919050565b610411816103fe565b811461041c57600080fd5b50565b60008135905061042e81610408565b92915050565b60006020828403121561044a576104496103f4565b5b60006104588482850161041f565b91505092915050565b600081519050919050565b600082825260208201905092915050565b60005b8381101561049b578082015181840152602081019050610480565b838111156104aa576000848401525b50505050565b6000601f19601f8301169050919050565b60006104cc82610461565b6104d6818561046c565b93506104e681856020860161047d565b6104ef816104b0565b840191505092915050565b6000602082019050818103600083015261051481846104c1565b905092915050565b600080fd5b600080fd5b7f4e487b7100000000000000000000000000000000000000000000000000000000600052604160045260246000fd5b61055e826104b0565b810181811067ffffffffffffffff8211171561057d5761057c610526565b5b80604052505050565b60006105906103ea565b905061059c8282610555565b919050565b600067ffffffffffffffff8211156105bc576105bb610526565b5b6105c5826104b0565b9050602081019050919050565b82818337600083830152505050565b60006105f46105ef846105a1565b610586565b9050828152602081018484840111156106105761060f610521565b5b61061b8482856105d2565b509392505050565b600082601f8301126106385761063761051c565b5b81356106488482602086016105e1565b91505092915050565b600060208284031215610667576106666103f4565b5b600082013567ffffffffffffffff811115610685576106846103f9565b5b61069184828501610623565b91505092915050565b6106a3816103fe565b82525050565b60006020820190506106be600083018461069a565b92915050565b600080604083850312156106db576106da6103f4565b5b600083013567ffffffffffffffff8111156106f9576106f86103f9565b5b61070585828601610623565b92505060206107168582860161041f565b9150509250929050565b7f4e487b7100000000000000000000000000000000000000000000000000000000600052602260045260246000fd5b6000600282049050600182168061076757607f821691505b6020821081141561077b5761077a610720565b5b50919050565b600081905092915050565b600061079782610461565b6107a18185610781565b93506107b181856020860161047d565b80840191505092915050565b60006107c9828461078c565b915081905092915050565b7f596f752073686f756c642070617920616d6f756e7420657175616c20746f206c60008201527f6f636b696e672066656500000000000000000000000000000000000000000000602082015250565b6000610830602a8361046c565b915061083b826107d4565b604082019050919050565b6000602082019050818103600083015261085f81610823565b9050919050565b7f4e487b7100000000000000000000000000000000000000000000000000000000600052601160045260246000fd5b60006108a0826103fe565b91506108ab836103fe565b9250827fffffffffffffffffffffffffffffffffffffffffffffffffffffffffffffffff038211156108e0576108df610866565b5b828201905092915050565b7f4576656e742069642063616e2774206265206e756c6c00000000000000000000600082015250565b600061092160168361046c565b915061092c826108eb565b602082019050919050565b6000602082019050818103600083015261095081610914565b9050919050565b7f4576656e74206c6f636b696e67206665652063616e2774206265207a65726f00600082015250565b600061098d601f8361046c565b915061099882610957565b602082019050919050565b600060208201905081810360008301526109bc81610980565b905091905056fea2646970667358221220596abf579a187b19e917f4222a72c3054eb0c0ea2b07b9427960eb48ecb96b2c64736f6c63430008090033",
  "linkReferences": {},
  "deployedLinkReferences": {}
}