{
  "_format": "hh-sol-artifact-1",
  "contractName": "FlexiPay",
  "sourceName": "contracts/FlexiPay.sol",
  "abi": [
    {
      "inputs": [],
      "stateMutability": "nonpayable",
      "type": "constructor"
    },
    {
      "inputs": [
        {
          "internalType": "string",
          "name": "_eventId",
          "type": "string"
        },
        {
          "internalType": "uint256",
          "name": "_lockingFee",
          "type": "uint256"
        }
      ],
      "name": "addEvent",
      "outputs": [],
      "stateMutability": "nonpayable",
      "type": "function"
    },
    {
      "inputs": [
        {
          "internalType": "string",
          "name": "_eventId",
          "type": "string"
        }
      ],
      "name": "getEventLockedFee",
      "outputs": [
        {
          "internalType": "uint256",
          "name": "",
          "type": "uint256"
        }
      ],
      "stateMutability": "view",
      "type": "function"
    },
    {
      "inputs": [
        {
          "internalType": "string",
          "name": "_eventId",
          "type": "string"
        },
        {
          "internalType": "uint256",
          "name": "tokens",
          "type": "uint256"
        }
      ],
      "name": "registerForEvent",
      "outputs": [],
      "stateMutability": "nonpayable",
      "type": "function"
    },
    {
      "inputs": [
        {
          "internalType": "uint256",
          "name": "",
          "type": "uint256"
        }
      ],
      "name": "registeredEvents",
      "outputs": [
        {
          "internalType": "string",
          "name": "",
          "type": "string"
        }
      ],
      "stateMutability": "view",
      "type": "function"
    },
    {
      "inputs": [
        {
          "internalType": "string",
          "name": "_eventId",
          "type": "string"
        }
      ],
      "name": "withDrawRsvpFee",
      "outputs": [],
      "stateMutability": "nonpayable",
      "type": "function"
    }
  ],
  "bytecode": "0x6080604052735d8b4c2554aeb7e86f387b4d6c00ac33499ed01f600460006101000a81548173ffffffffffffffffffffffffffffffffffffffff021916908373ffffffffffffffffffffffffffffffffffffffff16021790555034801561006557600080fd5b50600460009054906101000a900473ffffffffffffffffffffffffffffffffffffffff166000806101000a81548173ffffffffffffffffffffffffffffffffffffffff021916908373ffffffffffffffffffffffffffffffffffffffff160217905550610d17806100d76000396000f3fe608060405234801561001057600080fd5b50600436106100575760003560e01c806366c383d61461005c5780637c3615081461008c578063b321eac1146100bc578063bbbbe37c146100d8578063f0e1691a146100f4575b600080fd5b610076600480360381019061007191906105ee565b610110565b60405161008391906106b4565b60405180910390f35b6100a660048036038101906100a1919061080b565b6101bc565b6040516100b39190610863565b60405180910390f35b6100d660048036038101906100d1919061080b565b6101e4565b005b6100f260048036038101906100ed919061087e565b610377565b005b61010e6004803603810190610109919061087e565b610411565b005b6003818154811061012057600080fd5b90600052602060002001600091509050805461013b90610909565b80601f016020809104026020016040519081016040528092919081815260200182805461016790610909565b80156101b45780601f10610189576101008083540402835291602001916101b4565b820191906000526020600020905b81548152906001019060200180831161019757829003601f168201915b505050505081565b60006002826040516101ce9190610977565b9081526020016040518091039020549050919050565b6001816040516101f49190610977565b9081526020016040518091039020546002826040516102139190610977565b9081526020016040518091039020541015610263576040517f08c379a000000000000000000000000000000000000000000000000000000000815260040161025a906109da565b60405180910390fd5b6001816040516102739190610977565b9081526020016040518091039020546002826040516102929190610977565b908152602001604051809103902060008282546102af9190610a29565b9250508190555060008054906101000a900473ffffffffffffffffffffffffffffffffffffffff1673ffffffffffffffffffffffffffffffffffffffff1663a9059cbb33670de0b6b3a764000060018560405161030c9190610977565b9081526020016040518091039020546103259190610a5d565b6040518363ffffffff1660e01b8152600401610342929190610af8565b600060405180830381600087803b15801561035c57600080fd5b505af1158015610370573d6000803e3d6000fd5b5050505050565b6001826040516103879190610977565b9081526020016040518091039020548110156103d8576040517f08c379a00000000000000000000000000000000000000000000000000000000081526004016103cf90610b93565b60405180910390fd5b806002836040516103e99190610977565b908152602001604051809103902060008282546104069190610bb3565b925050819055505050565b6000829050600081511161045a576040517f08c379a000000000000000000000000000000000000000000000000000000000815260040161045190610c55565b60405180910390fd5b6000821161049d576040517f08c379a000000000000000000000000000000000000000000000000000000000815260040161049490610cc1565b60405180910390fd5b816001846040516104ae9190610977565b9081526020016040518091039020819055506003839080600181540180825580915050600190039060005260206000200160009091909190915090805190602001906104fb929190610501565b50505050565b82805461050d90610909565b90600052602060002090601f01602090048101928261052f5760008555610576565b82601f1061054857805160ff1916838001178555610576565b82800160010185558215610576579182015b8281111561057557825182559160200191906001019061055a565b5b5090506105839190610587565b5090565b5b808211156105a0576000816000905550600101610588565b5090565b6000604051905090565b600080fd5b600080fd5b6000819050919050565b6105cb816105b8565b81146105d657600080fd5b50565b6000813590506105e8816105c2565b92915050565b600060208284031215610604576106036105ae565b5b6000610612848285016105d9565b91505092915050565b600081519050919050565b600082825260208201905092915050565b60005b8381101561065557808201518184015260208101905061063a565b83811115610664576000848401525b50505050565b6000601f19601f8301169050919050565b60006106868261061b565b6106908185610626565b93506106a0818560208601610637565b6106a98161066a565b840191505092915050565b600060208201905081810360008301526106ce818461067b565b905092915050565b600080fd5b600080fd5b7f4e487b7100000000000000000000000000000000000000000000000000000000600052604160045260246000fd5b6107188261066a565b810181811067ffffffffffffffff82111715610737576107366106e0565b5b80604052505050565b600061074a6105a4565b9050610756828261070f565b919050565b600067ffffffffffffffff821115610776576107756106e0565b5b61077f8261066a565b9050602081019050919050565b82818337600083830152505050565b60006107ae6107a98461075b565b610740565b9050828152602081018484840111156107ca576107c96106db565b5b6107d584828561078c565b509392505050565b600082601f8301126107f2576107f16106d6565b5b813561080284826020860161079b565b91505092915050565b600060208284031215610821576108206105ae565b5b600082013567ffffffffffffffff81111561083f5761083e6105b3565b5b61084b848285016107dd565b91505092915050565b61085d816105b8565b82525050565b60006020820190506108786000830184610854565b92915050565b60008060408385031215610895576108946105ae565b5b600083013567ffffffffffffffff8111156108b3576108b26105b3565b5b6108bf858286016107dd565b92505060206108d0858286016105d9565b9150509250929050565b7f4e487b7100000000000000000000000000000000000000000000000000000000600052602260045260246000fd5b6000600282049050600182168061092157607f821691505b60208210811415610935576109346108da565b5b50919050565b600081905092915050565b60006109518261061b565b61095b818561093b565b935061096b818560208601610637565b80840191505092915050565b60006109838284610946565b915081905092915050565b7f4e6f206665652072656d61696e7320746f20636c61696d000000000000000000600082015250565b60006109c4601783610626565b91506109cf8261098e565b602082019050919050565b600060208201905081810360008301526109f3816109b7565b9050919050565b7f4e487b7100000000000000000000000000000000000000000000000000000000600052601160045260246000fd5b6000610a34826105b8565b9150610a3f836105b8565b925082821015610a5257610a516109fa565b5b828203905092915050565b6000610a68826105b8565b9150610a73836105b8565b9250817fffffffffffffffffffffffffffffffffffffffffffffffffffffffffffffffff0483118215151615610aac57610aab6109fa565b5b828202905092915050565b600073ffffffffffffffffffffffffffffffffffffffff82169050919050565b6000610ae282610ab7565b9050919050565b610af281610ad7565b82525050565b6000604082019050610b0d6000830185610ae9565b610b1a6020830184610854565b9392505050565b7f596f752073686f756c642070617920616d6f756e7420657175616c20746f206c60008201527f6f636b696e672066656500000000000000000000000000000000000000000000602082015250565b6000610b7d602a83610626565b9150610b8882610b21565b604082019050919050565b60006020820190508181036000830152610bac81610b70565b9050919050565b6000610bbe826105b8565b9150610bc9836105b8565b9250827fffffffffffffffffffffffffffffffffffffffffffffffffffffffffffffffff03821115610bfe57610bfd6109fa565b5b828201905092915050565b7f4576656e742069642063616e2774206265206e756c6c00000000000000000000600082015250565b6000610c3f601683610626565b9150610c4a82610c09565b602082019050919050565b60006020820190508181036000830152610c6e81610c32565b9050919050565b7f4576656e74206c6f636b696e67206665652063616e2774206265207a65726f00600082015250565b6000610cab601f83610626565b9150610cb682610c75565b602082019050919050565b60006020820190508181036000830152610cda81610c9e565b905091905056fea264697066735822122010c85280913b02545c30e4862d589ab9f7517775453d08ec8a17745d4f0db3f164736f6c63430008090033",
  "linkReferences": {},
  "deployedLinkReferences": {}
}