{
    "_format": "hh-sol-artifact-1",
    "contractName": "ProofOfAttendence",
    "sourceName": "contracts/ProofOfAttendence.sol",
    "abi": [
        {
            "inputs": [],
            "stateMutability": "nonpayable",
            "type": "constructor"
        },
        {
            "anonymous": false,
            "inputs": [
                {
                    "indexed": true,
                    "internalType": "address",
                    "name": "owner",
                    "type": "address"
                },
                {
                    "indexed": true,
                    "internalType": "address",
                    "name": "approved",
                    "type": "address"
                },
                {
                    "indexed": true,
                    "internalType": "uint256",
                    "name": "tokenId",
                    "type": "uint256"
                }
            ],
            "name": "Approval",
            "type": "event"
        },
        {
            "anonymous": false,
            "inputs": [
                {
                    "indexed": true,
                    "internalType": "address",
                    "name": "owner",
                    "type": "address"
                },
                {
                    "indexed": true,
                    "internalType": "address",
                    "name": "operator",
                    "type": "address"
                },
                {
                    "indexed": false,
                    "internalType": "bool",
                    "name": "approved",
                    "type": "bool"
                }
            ],
            "name": "ApprovalForAll",
            "type": "event"
        },
        {
            "anonymous": false,
            "inputs": [
                {
                    "indexed": true,
                    "internalType": "address",
                    "name": "previousOwner",
                    "type": "address"
                },
                {
                    "indexed": true,
                    "internalType": "address",
                    "name": "newOwner",
                    "type": "address"
                }
            ],
            "name": "OwnershipTransferred",
            "type": "event"
        },
        {
            "anonymous": false,
            "inputs": [
                {
                    "indexed": true,
                    "internalType": "address",
                    "name": "from",
                    "type": "address"
                },
                {
                    "indexed": true,
                    "internalType": "address",
                    "name": "to",
                    "type": "address"
                },
                {
                    "indexed": true,
                    "internalType": "uint256",
                    "name": "tokenId",
                    "type": "uint256"
                }
            ],
            "name": "Transfer",
            "type": "event"
        },
        {
            "inputs": [
                {
                    "internalType": "address",
                    "name": "to",
                    "type": "address"
                },
                {
                    "internalType": "uint256",
                    "name": "tokenId",
                    "type": "uint256"
                }
            ],
            "name": "approve",
            "outputs": [],
            "stateMutability": "nonpayable",
            "type": "function"
        },
        {
            "inputs": [
                {
                    "internalType": "address",
                    "name": "owner",
                    "type": "address"
                }
            ],
            "name": "balanceOf",
            "outputs": [
                {
                    "internalType": "uint256",
                    "name": "",
                    "type": "uint256"
                }
            ],
            "stateMutability": "view",
            "type": "function"
        },
        {
            "inputs": [
                {
                    "internalType": "uint256",
                    "name": "tokenId",
                    "type": "uint256"
                }
            ],
            "name": "getApproved",
            "outputs": [
                {
                    "internalType": "address",
                    "name": "",
                    "type": "address"
                }
            ],
            "stateMutability": "view",
            "type": "function"
        },
        {
            "inputs": [
                {
                    "internalType": "address",
                    "name": "owner",
                    "type": "address"
                },
                {
                    "internalType": "address",
                    "name": "operator",
                    "type": "address"
                }
            ],
            "name": "isApprovedForAll",
            "outputs": [
                {
                    "internalType": "bool",
                    "name": "",
                    "type": "bool"
                }
            ],
            "stateMutability": "view",
            "type": "function"
        },
        {
            "inputs": [],
            "name": "name",
            "outputs": [
                {
                    "internalType": "string",
                    "name": "",
                    "type": "string"
                }
            ],
            "stateMutability": "view",
            "type": "function"
        },
        {
            "inputs": [],
            "name": "owner",
            "outputs": [
                {
                    "internalType": "address",
                    "name": "",
                    "type": "address"
                }
            ],
            "stateMutability": "view",
            "type": "function"
        },
        {
            "inputs": [
                {
                    "internalType": "uint256",
                    "name": "tokenId",
                    "type": "uint256"
                }
            ],
            "name": "ownerOf",
            "outputs": [
                {
                    "internalType": "address",
                    "name": "",
                    "type": "address"
                }
            ],
            "stateMutability": "view",
            "type": "function"
        },
        {
            "inputs": [],
            "name": "renounceOwnership",
            "outputs": [],
            "stateMutability": "nonpayable",
            "type": "function"
        },
        {
            "inputs": [
                {
                    "internalType": "address",
                    "name": "to",
                    "type": "address"
                },
                {
                    "internalType": "string",
                    "name": "uri",
                    "type": "string"
                }
            ],
            "name": "safeMint",
            "outputs": [],
            "stateMutability": "nonpayable",
            "type": "function"
        },
        {
            "inputs": [
                {
                    "internalType": "address",
                    "name": "from",
                    "type": "address"
                },
                {
                    "internalType": "address",
                    "name": "to",
                    "type": "address"
                },
                {
                    "internalType": "uint256",
                    "name": "tokenId",
                    "type": "uint256"
                }
            ],
            "name": "safeTransferFrom",
            "outputs": [],
            "stateMutability": "nonpayable",
            "type": "function"
        },
        {
            "inputs": [
                {
                    "internalType": "address",
                    "name": "from",
                    "type": "address"
                },
                {
                    "internalType": "address",
                    "name": "to",
                    "type": "address"
                },
                {
                    "internalType": "uint256",
                    "name": "tokenId",
                    "type": "uint256"
                },
                {
                    "internalType": "bytes",
                    "name": "data",
                    "type": "bytes"
                }
            ],
            "name": "safeTransferFrom",
            "outputs": [],
            "stateMutability": "nonpayable",
            "type": "function"
        },
        {
            "inputs": [
                {
                    "internalType": "address",
                    "name": "operator",
                    "type": "address"
                },
                {
                    "internalType": "bool",
                    "name": "approved",
                    "type": "bool"
                }
            ],
            "name": "setApprovalForAll",
            "outputs": [],
            "stateMutability": "nonpayable",
            "type": "function"
        },
        {
            "inputs": [
                {
                    "internalType": "bytes4",
                    "name": "interfaceId",
                    "type": "bytes4"
                }
            ],
            "name": "supportsInterface",
            "outputs": [
                {
                    "internalType": "bool",
                    "name": "",
                    "type": "bool"
                }
            ],
            "stateMutability": "view",
            "type": "function"
        },
        {
            "inputs": [],
            "name": "symbol",
            "outputs": [
                {
                    "internalType": "string",
                    "name": "",
                    "type": "string"
                }
            ],
            "stateMutability": "view",
            "type": "function"
        },
        {
            "inputs": [],
            "name": "tokenCount",
            "outputs": [
                {
                    "internalType": "uint256",
                    "name": "",
                    "type": "uint256"
                }
            ],
            "stateMutability": "view",
            "type": "function"
        },
        {
            "inputs": [
                {
                    "internalType": "uint256",
                    "name": "tokenId",
                    "type": "uint256"
                }
            ],
            "name": "tokenURI",
            "outputs": [
                {
                    "internalType": "string",
                    "name": "",
                    "type": "string"
                }
            ],
            "stateMutability": "view",
            "type": "function"
        },
        {
            "inputs": [
                {
                    "internalType": "address",
                    "name": "from",
                    "type": "address"
                },
                {
                    "internalType": "address",
                    "name": "to",
                    "type": "address"
                },
                {
                    "internalType": "uint256",
                    "name": "tokenId",
                    "type": "uint256"
                }
            ],
            "name": "transferFrom",
            "outputs": [],
            "stateMutability": "nonpayable",
            "type": "function"
        },
        {
            "inputs": [
                {
                    "internalType": "address",
                    "name": "newOwner",
                    "type": "address"
                }
            ],
            "name": "transferOwnership",
            "outputs": [],
            "stateMutability": "nonpayable",
            "type": "function"
        }
    ],
    "bytecode": "0x60806040523480156200001157600080fd5b506040518060400160405280601181526020017f50726f6f664f66417474656e64656e63650000000000000000000000000000008152506040518060400160405280600381526020017f504f410000000000000000000000000000000000000000000000000000000000815250816000908051906020019062000096929190620001a6565b508060019080519060200190620000af929190620001a6565b505050620000d2620000c6620000d860201b60201c565b620000e060201b60201c565b620002bb565b600033905090565b6000600760009054906101000a900473ffffffffffffffffffffffffffffffffffffffff16905081600760006101000a81548173ffffffffffffffffffffffffffffffffffffffff021916908373ffffffffffffffffffffffffffffffffffffffff1602179055508173ffffffffffffffffffffffffffffffffffffffff168173ffffffffffffffffffffffffffffffffffffffff167f8be0079c531659141344cd1fd0a4f28419497f9722a3daafe3b4186f6b6457e060405160405180910390a35050565b828054620001b49062000285565b90600052602060002090601f016020900481019282620001d8576000855562000224565b82601f10620001f357805160ff191683800117855562000224565b8280016001018555821562000224579182015b828111156200022357825182559160200191906001019062000206565b5b50905062000233919062000237565b5090565b5b808211156200025257600081600090555060010162000238565b5090565b7f4e487b7100000000000000000000000000000000000000000000000000000000600052602260045260246000fd5b600060028204905060018216806200029e57607f821691505b60208210811415620002b557620002b462000256565b5b50919050565b612cc880620002cb6000396000f3fe608060405234801561001057600080fd5b50600436106101165760003560e01c80638da5cb5b116100a2578063b88d4fde11610071578063b88d4fde146102cd578063c87b56dd146102e9578063d204c45e14610319578063e985e9c514610335578063f2fde38b1461036557610116565b80638da5cb5b1461025757806395d89b41146102755780639f181b5e14610293578063a22cb465146102b157610116565b806323b872dd116100e957806323b872dd146101b557806342842e0e146101d15780636352211e146101ed57806370a082311461021d578063715018a61461024d57610116565b806301ffc9a71461011b57806306fdde031461014b578063081812fc14610169578063095ea7b314610199575b600080fd5b61013560048036038101906101309190611b9a565b610381565b6040516101429190611be2565b60405180910390f35b610153610463565b6040516101609190611c96565b60405180910390f35b610183600480360381019061017e9190611cee565b6104f5565b6040516101909190611d5c565b60405180910390f35b6101b360048036038101906101ae9190611da3565b61053b565b005b6101cf60048036038101906101ca9190611de3565b610653565b005b6101eb60048036038101906101e69190611de3565b6106b3565b005b61020760048036038101906102029190611cee565b6106d3565b6040516102149190611d5c565b60405180910390f35b61023760048036038101906102329190611e36565b610785565b6040516102449190611e72565b60405180910390f35b61025561083d565b005b61025f610851565b60405161026c9190611d5c565b60405180910390f35b61027d61087b565b60405161028a9190611c96565b60405180910390f35b61029b61090d565b6040516102a89190611e72565b60405180910390f35b6102cb60048036038101906102c69190611eb9565b610913565b005b6102e760048036038101906102e2919061202e565b610929565b005b61030360048036038101906102fe9190611cee565b61098b565b6040516103109190611c96565b60405180910390f35b610333600480360381019061032e9190612152565b61099d565b005b61034f600480360381019061034a91906121ae565b6109e6565b60405161035c9190611be2565b60405180910390f35b61037f600480360381019061037a9190611e36565b610a7a565b005b60007f80ac58cd000000000000000000000000000000000000000000000000000000007bffffffffffffffffffffffffffffffffffffffffffffffffffffffff1916827bffffffffffffffffffffffffffffffffffffffffffffffffffffffff1916148061044c57507f5b5e139f000000000000000000000000000000000000000000000000000000007bffffffffffffffffffffffffffffffffffffffffffffffffffffffff1916827bffffffffffffffffffffffffffffffffffffffffffffffffffffffff1916145b8061045c575061045b82610afe565b5b9050919050565b6060600080546104729061221d565b80601f016020809104026020016040519081016040528092919081815260200182805461049e9061221d565b80156104eb5780601f106104c0576101008083540402835291602001916104eb565b820191906000526020600020905b8154815290600101906020018083116104ce57829003601f168201915b5050505050905090565b600061050082610b68565b6004600083815260200190815260200160002060009054906101000a900473ffffffffffffffffffffffffffffffffffffffff169050919050565b6000610546826106d3565b90508073ffffffffffffffffffffffffffffffffffffffff168373ffffffffffffffffffffffffffffffffffffffff1614156105b7576040517f08c379a00000000000000000000000000000000000000000000000000000000081526004016105ae906122c1565b60405180910390fd5b8073ffffffffffffffffffffffffffffffffffffffff166105d6610bb3565b73ffffffffffffffffffffffffffffffffffffffff1614806106055750610604816105ff610bb3565b6109e6565b5b610644576040517f08c379a000000000000000000000000000000000000000000000000000000000815260040161063b90612353565b60405180910390fd5b61064e8383610bbb565b505050565b61066461065e610bb3565b82610c74565b6106a3576040517f08c379a000000000000000000000000000000000000000000000000000000000815260040161069a906123e5565b60405180910390fd5b6106ae838383610d09565b505050565b6106ce83838360405180602001604052806000815250610929565b505050565b6000806002600084815260200190815260200160002060009054906101000a900473ffffffffffffffffffffffffffffffffffffffff169050600073ffffffffffffffffffffffffffffffffffffffff168173ffffffffffffffffffffffffffffffffffffffff16141561077c576040517f08c379a000000000000000000000000000000000000000000000000000000000815260040161077390612451565b60405180910390fd5b80915050919050565b60008073ffffffffffffffffffffffffffffffffffffffff168273ffffffffffffffffffffffffffffffffffffffff1614156107f6576040517f08c379a00000000000000000000000000000000000000000000000000000000081526004016107ed906124e3565b60405180910390fd5b600360008373ffffffffffffffffffffffffffffffffffffffff1673ffffffffffffffffffffffffffffffffffffffff168152602001908152602001600020549050919050565b610845610f70565b61084f6000610fee565b565b6000600760009054906101000a900473ffffffffffffffffffffffffffffffffffffffff16905090565b60606001805461088a9061221d565b80601f01602080910402602001604051908101604052809291908181526020018280546108b69061221d565b80156109035780601f106108d857610100808354040283529160200191610903565b820191906000526020600020905b8154815290600101906020018083116108e657829003601f168201915b5050505050905090565b60095481565b61092561091e610bb3565b83836110b4565b5050565b61093a610934610bb3565b83610c74565b610979576040517f08c379a0000000000000000000000000000000000000000000000000000000008152600401610970906123e5565b60405180910390fd5b61098584848484611221565b50505050565b60606109968261127d565b9050919050565b600960008154809291906109b090612532565b919050555060006109c16008611390565b90506109cd600861139e565b6109d783826113b4565b6109e181836113d2565b505050565b6000600560008473ffffffffffffffffffffffffffffffffffffffff1673ffffffffffffffffffffffffffffffffffffffff16815260200190815260200160002060008373ffffffffffffffffffffffffffffffffffffffff1673ffffffffffffffffffffffffffffffffffffffff16815260200190815260200160002060009054906101000a900460ff16905092915050565b610a82610f70565b600073ffffffffffffffffffffffffffffffffffffffff168173ffffffffffffffffffffffffffffffffffffffff161415610af2576040517f08c379a0000000000000000000000000000000000000000000000000000000008152600401610ae9906125ed565b60405180910390fd5b610afb81610fee565b50565b60007f01ffc9a7000000000000000000000000000000000000000000000000000000007bffffffffffffffffffffffffffffffffffffffffffffffffffffffff1916827bffffffffffffffffffffffffffffffffffffffffffffffffffffffff1916149050919050565b610b7181611446565b610bb0576040517f08c379a0000000000000000000000000000000000000000000000000000000008152600401610ba790612451565b60405180910390fd5b50565b600033905090565b816004600083815260200190815260200160002060006101000a81548173ffffffffffffffffffffffffffffffffffffffff021916908373ffffffffffffffffffffffffffffffffffffffff160217905550808273ffffffffffffffffffffffffffffffffffffffff16610c2e836106d3565b73ffffffffffffffffffffffffffffffffffffffff167f8c5be1e5ebec7d5bd14f71427d1e84f3dd0314c0f7b2291e5b200ac8c7c3b92560405160405180910390a45050565b600080610c80836106d3565b90508073ffffffffffffffffffffffffffffffffffffffff168473ffffffffffffffffffffffffffffffffffffffff161480610cc25750610cc181856109e6565b5b80610d0057508373ffffffffffffffffffffffffffffffffffffffff16610ce8846104f5565b73ffffffffffffffffffffffffffffffffffffffff16145b91505092915050565b8273ffffffffffffffffffffffffffffffffffffffff16610d29826106d3565b73ffffffffffffffffffffffffffffffffffffffff1614610d7f576040517f08c379a0000000000000000000000000000000000000000000000000000000008152600401610d769061267f565b60405180910390fd5b600073ffffffffffffffffffffffffffffffffffffffff168273ffffffffffffffffffffffffffffffffffffffff161415610def576040517f08c379a0000000000000000000000000000000000000000000000000000000008152600401610de690612711565b60405180910390fd5b610dfa8383836114b2565b610e05600082610bbb565b6001600360008573ffffffffffffffffffffffffffffffffffffffff1673ffffffffffffffffffffffffffffffffffffffff1681526020019081526020016000206000828254610e559190612731565b925050819055506001600360008473ffffffffffffffffffffffffffffffffffffffff1673ffffffffffffffffffffffffffffffffffffffff1681526020019081526020016000206000828254610eac9190612765565b92505081905550816002600083815260200190815260200160002060006101000a81548173ffffffffffffffffffffffffffffffffffffffff021916908373ffffffffffffffffffffffffffffffffffffffff160217905550808273ffffffffffffffffffffffffffffffffffffffff168473ffffffffffffffffffffffffffffffffffffffff167fddf252ad1be2c89b69c2b068fc378daa952ba7f163c4a11628f55a4df523b3ef60405160405180910390a4610f6b8383836114b7565b505050565b610f78610bb3565b73ffffffffffffffffffffffffffffffffffffffff16610f96610851565b73ffffffffffffffffffffffffffffffffffffffff1614610fec576040517f08c379a0000000000000000000000000000000000000000000000000000000008152600401610fe390612807565b60405180910390fd5b565b6000600760009054906101000a900473ffffffffffffffffffffffffffffffffffffffff16905081600760006101000a81548173ffffffffffffffffffffffffffffffffffffffff021916908373ffffffffffffffffffffffffffffffffffffffff1602179055508173ffffffffffffffffffffffffffffffffffffffff168173ffffffffffffffffffffffffffffffffffffffff167f8be0079c531659141344cd1fd0a4f28419497f9722a3daafe3b4186f6b6457e060405160405180910390a35050565b8173ffffffffffffffffffffffffffffffffffffffff168373ffffffffffffffffffffffffffffffffffffffff161415611123576040517f08c379a000000000000000000000000000000000000000000000000000000000815260040161111a90612873565b60405180910390fd5b80600560008573ffffffffffffffffffffffffffffffffffffffff1673ffffffffffffffffffffffffffffffffffffffff16815260200190815260200160002060008473ffffffffffffffffffffffffffffffffffffffff1673ffffffffffffffffffffffffffffffffffffffff16815260200190815260200160002060006101000a81548160ff0219169083151502179055508173ffffffffffffffffffffffffffffffffffffffff168373ffffffffffffffffffffffffffffffffffffffff167f17307eab39ab6107e8899845ad3d59bd9653f200f220920489ca2b5937696c31836040516112149190611be2565b60405180910390a3505050565b61122c848484610d09565b611238848484846114bc565b611277576040517f08c379a000000000000000000000000000000000000000000000000000000000815260040161126e90612905565b60405180910390fd5b50505050565b606061128882610b68565b60006006600084815260200190815260200160002080546112a89061221d565b80601f01602080910402602001604051908101604052809291908181526020018280546112d49061221d565b80156113215780601f106112f657610100808354040283529160200191611321565b820191906000526020600020905b81548152906001019060200180831161130457829003601f168201915b505050505090506000611332611653565b905060008151141561134857819250505061138b565b60008251111561137d578082604051602001611365929190612961565b6040516020818303038152906040529250505061138b565b6113868461166a565b925050505b919050565b600081600001549050919050565b6001816000016000828254019250508190555050565b6113ce8282604051806020016040528060008152506116d2565b5050565b6113db82611446565b61141a576040517f08c379a0000000000000000000000000000000000000000000000000000000008152600401611411906129f7565b60405180910390fd5b80600660008481526020019081526020016000209080519060200190611441929190611a8b565b505050565b60008073ffffffffffffffffffffffffffffffffffffffff166002600084815260200190815260200160002060009054906101000a900473ffffffffffffffffffffffffffffffffffffffff1673ffffffffffffffffffffffffffffffffffffffff1614159050919050565b505050565b505050565b60006114dd8473ffffffffffffffffffffffffffffffffffffffff1661172d565b15611646578373ffffffffffffffffffffffffffffffffffffffff1663150b7a02611506610bb3565b8786866040518563ffffffff1660e01b81526004016115289493929190612a6c565b602060405180830381600087803b15801561154257600080fd5b505af192505050801561157357506040513d601f19601f820116820180604052508101906115709190612acd565b60015b6115f6573d80600081146115a3576040519150601f19603f3d011682016040523d82523d6000602084013e6115a8565b606091505b506000815114156115ee576040517f08c379a00000000000000000000000000000000000000000000000000000000081526004016115e590612905565b60405180910390fd5b805181602001fd5b63150b7a0260e01b7bffffffffffffffffffffffffffffffffffffffffffffffffffffffff1916817bffffffffffffffffffffffffffffffffffffffffffffffffffffffff19161491505061164b565b600190505b949350505050565b606060405180602001604052806000815250905090565b606061167582610b68565b600061167f611653565b9050600081511161169f57604051806020016040528060008152506116ca565b806116a984611750565b6040516020016116ba929190612961565b6040516020818303038152906040525b915050919050565b6116dc83836118b1565b6116e960008484846114bc565b611728576040517f08c379a000000000000000000000000000000000000000000000000000000000815260040161171f90612905565b60405180910390fd5b505050565b6000808273ffffffffffffffffffffffffffffffffffffffff163b119050919050565b60606000821415611798576040518060400160405280600181526020017f300000000000000000000000000000000000000000000000000000000000000081525090506118ac565b600082905060005b600082146117ca5780806117b390612532565b915050600a826117c39190612b29565b91506117a0565b60008167ffffffffffffffff8111156117e6576117e5611f03565b5b6040519080825280601f01601f1916602001820160405280156118185781602001600182028036833780820191505090505b5090505b600085146118a5576001826118319190612731565b9150600a856118409190612b5a565b603061184c9190612765565b60f81b81838151811061186257611861612b8b565b5b60200101907effffffffffffffffffffffffffffffffffffffffffffffffffffffffffffff1916908160001a905350600a8561189e9190612b29565b945061181c565b8093505050505b919050565b600073ffffffffffffffffffffffffffffffffffffffff168273ffffffffffffffffffffffffffffffffffffffff161415611921576040517f08c379a000000000000000000000000000000000000000000000000000000000815260040161191890612c06565b60405180910390fd5b61192a81611446565b1561196a576040517f08c379a000000000000000000000000000000000000000000000000000000000815260040161196190612c72565b60405180910390fd5b611976600083836114b2565b6001600360008473ffffffffffffffffffffffffffffffffffffffff1673ffffffffffffffffffffffffffffffffffffffff16815260200190815260200160002060008282546119c69190612765565b92505081905550816002600083815260200190815260200160002060006101000a81548173ffffffffffffffffffffffffffffffffffffffff021916908373ffffffffffffffffffffffffffffffffffffffff160217905550808273ffffffffffffffffffffffffffffffffffffffff16600073ffffffffffffffffffffffffffffffffffffffff167fddf252ad1be2c89b69c2b068fc378daa952ba7f163c4a11628f55a4df523b3ef60405160405180910390a4611a87600083836114b7565b5050565b828054611a979061221d565b90600052602060002090601f016020900481019282611ab95760008555611b00565b82601f10611ad257805160ff1916838001178555611b00565b82800160010185558215611b00579182015b82811115611aff578251825591602001919060010190611ae4565b5b509050611b0d9190611b11565b5090565b5b80821115611b2a576000816000905550600101611b12565b5090565b6000604051905090565b600080fd5b600080fd5b60007fffffffff0000000000000000000000000000000000000000000000000000000082169050919050565b611b7781611b42565b8114611b8257600080fd5b50565b600081359050611b9481611b6e565b92915050565b600060208284031215611bb057611baf611b38565b5b6000611bbe84828501611b85565b91505092915050565b60008115159050919050565b611bdc81611bc7565b82525050565b6000602082019050611bf76000830184611bd3565b92915050565b600081519050919050565b600082825260208201905092915050565b60005b83811015611c37578082015181840152602081019050611c1c565b83811115611c46576000848401525b50505050565b6000601f19601f8301169050919050565b6000611c6882611bfd565b611c728185611c08565b9350611c82818560208601611c19565b611c8b81611c4c565b840191505092915050565b60006020820190508181036000830152611cb08184611c5d565b905092915050565b6000819050919050565b611ccb81611cb8565b8114611cd657600080fd5b50565b600081359050611ce881611cc2565b92915050565b600060208284031215611d0457611d03611b38565b5b6000611d1284828501611cd9565b91505092915050565b600073ffffffffffffffffffffffffffffffffffffffff82169050919050565b6000611d4682611d1b565b9050919050565b611d5681611d3b565b82525050565b6000602082019050611d716000830184611d4d565b92915050565b611d8081611d3b565b8114611d8b57600080fd5b50565b600081359050611d9d81611d77565b92915050565b60008060408385031215611dba57611db9611b38565b5b6000611dc885828601611d8e565b9250506020611dd985828601611cd9565b9150509250929050565b600080600060608486031215611dfc57611dfb611b38565b5b6000611e0a86828701611d8e565b9350506020611e1b86828701611d8e565b9250506040611e2c86828701611cd9565b9150509250925092565b600060208284031215611e4c57611e4b611b38565b5b6000611e5a84828501611d8e565b91505092915050565b611e6c81611cb8565b82525050565b6000602082019050611e876000830184611e63565b92915050565b611e9681611bc7565b8114611ea157600080fd5b50565b600081359050611eb381611e8d565b92915050565b60008060408385031215611ed057611ecf611b38565b5b6000611ede85828601611d8e565b9250506020611eef85828601611ea4565b9150509250929050565b600080fd5b600080fd5b7f4e487b7100000000000000000000000000000000000000000000000000000000600052604160045260246000fd5b611f3b82611c4c565b810181811067ffffffffffffffff82111715611f5a57611f59611f03565b5b80604052505050565b6000611f6d611b2e565b9050611f798282611f32565b919050565b600067ffffffffffffffff821115611f9957611f98611f03565b5b611fa282611c4c565b9050602081019050919050565b82818337600083830152505050565b6000611fd1611fcc84611f7e565b611f63565b905082815260208101848484011115611fed57611fec611efe565b5b611ff8848285611faf565b509392505050565b600082601f83011261201557612014611ef9565b5b8135612025848260208601611fbe565b91505092915050565b6000806000806080858703121561204857612047611b38565b5b600061205687828801611d8e565b945050602061206787828801611d8e565b935050604061207887828801611cd9565b925050606085013567ffffffffffffffff81111561209957612098611b3d565b5b6120a587828801612000565b91505092959194509250565b600067ffffffffffffffff8211156120cc576120cb611f03565b5b6120d582611c4c565b9050602081019050919050565b60006120f56120f0846120b1565b611f63565b90508281526020810184848401111561211157612110611efe565b5b61211c848285611faf565b509392505050565b600082601f83011261213957612138611ef9565b5b81356121498482602086016120e2565b91505092915050565b6000806040838503121561216957612168611b38565b5b600061217785828601611d8e565b925050602083013567ffffffffffffffff81111561219857612197611b3d565b5b6121a485828601612124565b9150509250929050565b600080604083850312156121c5576121c4611b38565b5b60006121d385828601611d8e565b92505060206121e485828601611d8e565b9150509250929050565b7f4e487b7100000000000000000000000000000000000000000000000000000000600052602260045260246000fd5b6000600282049050600182168061223557607f821691505b60208210811415612249576122486121ee565b5b50919050565b7f4552433732313a20617070726f76616c20746f2063757272656e74206f776e6560008201527f7200000000000000000000000000000000000000000000000000000000000000602082015250565b60006122ab602183611c08565b91506122b68261224f565b604082019050919050565b600060208201905081810360008301526122da8161229e565b9050919050565b7f4552433732313a20617070726f76652063616c6c6572206973206e6f7420746f60008201527f6b656e206f776e6572206e6f7220617070726f76656420666f7220616c6c0000602082015250565b600061233d603e83611c08565b9150612348826122e1565b604082019050919050565b6000602082019050818103600083015261236c81612330565b9050919050565b7f4552433732313a2063616c6c6572206973206e6f7420746f6b656e206f776e6560008201527f72206e6f7220617070726f766564000000000000000000000000000000000000602082015250565b60006123cf602e83611c08565b91506123da82612373565b604082019050919050565b600060208201905081810360008301526123fe816123c2565b9050919050565b7f4552433732313a20696e76616c696420746f6b656e2049440000000000000000600082015250565b600061243b601883611c08565b915061244682612405565b602082019050919050565b6000602082019050818103600083015261246a8161242e565b9050919050565b7f4552433732313a2061646472657373207a65726f206973206e6f74206120766160008201527f6c6964206f776e65720000000000000000000000000000000000000000000000602082015250565b60006124cd602983611c08565b91506124d882612471565b604082019050919050565b600060208201905081810360008301526124fc816124c0565b9050919050565b7f4e487b7100000000000000000000000000000000000000000000000000000000600052601160045260246000fd5b600061253d82611cb8565b91507fffffffffffffffffffffffffffffffffffffffffffffffffffffffffffffffff8214156125705761256f612503565b5b600182019050919050565b7f4f776e61626c653a206e6577206f776e657220697320746865207a65726f206160008201527f6464726573730000000000000000000000000000000000000000000000000000602082015250565b60006125d7602683611c08565b91506125e28261257b565b604082019050919050565b60006020820190508181036000830152612606816125ca565b9050919050565b7f4552433732313a207472616e736665722066726f6d20696e636f72726563742060008201527f6f776e6572000000000000000000000000000000000000000000000000000000602082015250565b6000612669602583611c08565b91506126748261260d565b604082019050919050565b600060208201905081810360008301526126988161265c565b9050919050565b7f4552433732313a207472616e7366657220746f20746865207a65726f2061646460008201527f7265737300000000000000000000000000000000000000000000000000000000602082015250565b60006126fb602483611c08565b91506127068261269f565b604082019050919050565b6000602082019050818103600083015261272a816126ee565b9050919050565b600061273c82611cb8565b915061274783611cb8565b92508282101561275a57612759612503565b5b828203905092915050565b600061277082611cb8565b915061277b83611cb8565b9250827fffffffffffffffffffffffffffffffffffffffffffffffffffffffffffffffff038211156127b0576127af612503565b5b828201905092915050565b7f4f776e61626c653a2063616c6c6572206973206e6f7420746865206f776e6572600082015250565b60006127f1602083611c08565b91506127fc826127bb565b602082019050919050565b60006020820190508181036000830152612820816127e4565b9050919050565b7f4552433732313a20617070726f766520746f2063616c6c657200000000000000600082015250565b600061285d601983611c08565b915061286882612827565b602082019050919050565b6000602082019050818103600083015261288c81612850565b9050919050565b7f4552433732313a207472616e7366657220746f206e6f6e20455243373231526560008201527f63656976657220696d706c656d656e7465720000000000000000000000000000602082015250565b60006128ef603283611c08565b91506128fa82612893565b604082019050919050565b6000602082019050818103600083015261291e816128e2565b9050919050565b600081905092915050565b600061293b82611bfd565b6129458185612925565b9350612955818560208601611c19565b80840191505092915050565b600061296d8285612930565b91506129798284612930565b91508190509392505050565b7f45524337323155524953746f726167653a2055524920736574206f66206e6f6e60008201527f6578697374656e7420746f6b656e000000000000000000000000000000000000602082015250565b60006129e1602e83611c08565b91506129ec82612985565b604082019050919050565b60006020820190508181036000830152612a10816129d4565b9050919050565b600081519050919050565b600082825260208201905092915050565b6000612a3e82612a17565b612a488185612a22565b9350612a58818560208601611c19565b612a6181611c4c565b840191505092915050565b6000608082019050612a816000830187611d4d565b612a8e6020830186611d4d565b612a9b6040830185611e63565b8181036060830152612aad8184612a33565b905095945050505050565b600081519050612ac781611b6e565b92915050565b600060208284031215612ae357612ae2611b38565b5b6000612af184828501612ab8565b91505092915050565b7f4e487b7100000000000000000000000000000000000000000000000000000000600052601260045260246000fd5b6000612b3482611cb8565b9150612b3f83611cb8565b925082612b4f57612b4e612afa565b5b828204905092915050565b6000612b6582611cb8565b9150612b7083611cb8565b925082612b8057612b7f612afa565b5b828206905092915050565b7f4e487b7100000000000000000000000000000000000000000000000000000000600052603260045260246000fd5b7f4552433732313a206d696e7420746f20746865207a65726f2061646472657373600082015250565b6000612bf0602083611c08565b9150612bfb82612bba565b602082019050919050565b60006020820190508181036000830152612c1f81612be3565b9050919050565b7f4552433732313a20746f6b656e20616c7265616479206d696e74656400000000600082015250565b6000612c5c601c83611c08565b9150612c6782612c26565b602082019050919050565b60006020820190508181036000830152612c8b81612c4f565b905091905056fea264697066735822122038536b2397d19ca412015e2e23df9fc7edef3e531e0920f00990f04f6f75f7af64736f6c63430008090033",
    "linkReferences": {},
    "deployedLinkReferences": {}
}